{
  "abi": [
    {
      "inputs": [
        {
          "internalType": "address",
          "name": "_create2factory",
          "type": "address"
        },
        {
          "internalType": "uint256",
          "name": "_paymasterStake",
          "type": "uint256"
        },
        {
          "internalType": "uint32",
          "name": "_unstakeDelaySec",
          "type": "uint32"
        }
      ],
      "stateMutability": "nonpayable",
      "type": "constructor"
    },
    {
      "inputs": [
        {
          "internalType": "uint256",
          "name": "opIndex",
          "type": "uint256"
        },
        {
          "internalType": "address",
          "name": "paymaster",
          "type": "address"
        },
        {
          "internalType": "string",
          "name": "reason",
          "type": "string"
        }
      ],
      "name": "FailedOp",
      "type": "error"
    },
    {
      "anonymous": false,
      "inputs": [
        {
          "indexed": true,
          "internalType": "address",
          "name": "account",
          "type": "address"
        },
        {
          "indexed": false,
          "internalType": "uint256",
          "name": "totalDeposit",
          "type": "uint256"
        }
      ],
      "name": "Deposited",
      "type": "event"
    },
    {
      "anonymous": false,
      "inputs": [
        {
          "indexed": true,
          "internalType": "address",
          "name": "account",
          "type": "address"
        },
        {
          "indexed": false,
          "internalType": "uint256",
          "name": "totalStaked",
          "type": "uint256"
        },
        {
          "indexed": false,
          "internalType": "uint256",
          "name": "withdrawTime",
          "type": "uint256"
        }
      ],
      "name": "StakeLocked",
      "type": "event"
    },
    {
      "anonymous": false,
      "inputs": [
        {
          "indexed": true,
          "internalType": "address",
          "name": "account",
          "type": "address"
        },
        {
          "indexed": false,
          "internalType": "uint256",
          "name": "withdrawTime",
          "type": "uint256"
        }
      ],
      "name": "StakeUnlocked",
      "type": "event"
    },
    {
      "anonymous": false,
      "inputs": [
        {
          "indexed": true,
          "internalType": "address",
          "name": "account",
          "type": "address"
        },
        {
          "indexed": false,
          "internalType": "address",
          "name": "withdrawAddress",
          "type": "address"
        },
        {
          "indexed": false,
          "internalType": "uint256",
          "name": "amount",
          "type": "uint256"
        }
      ],
      "name": "StakeWithdrawn",
      "type": "event"
    },
    {
      "anonymous": false,
      "inputs": [
        {
          "indexed": true,
          "internalType": "bytes32",
          "name": "requestId",
          "type": "bytes32"
        },
        {
          "indexed": true,
          "internalType": "address",
          "name": "sender",
          "type": "address"
        },
        {
          "indexed": true,
          "internalType": "address",
          "name": "paymaster",
          "type": "address"
        },
        {
          "indexed": false,
          "internalType": "uint256",
          "name": "nonce",
          "type": "uint256"
        },
        {
          "indexed": false,
          "internalType": "uint256",
          "name": "actualGasCost",
          "type": "uint256"
        },
        {
          "indexed": false,
          "internalType": "uint256",
          "name": "actualGasPrice",
          "type": "uint256"
        },
        {
          "indexed": false,
          "internalType": "bool",
          "name": "success",
          "type": "bool"
        }
      ],
      "name": "UserOperationEvent",
      "type": "event"
    },
    {
      "anonymous": false,
      "inputs": [
        {
          "indexed": true,
          "internalType": "bytes32",
          "name": "requestId",
          "type": "bytes32"
        },
        {
          "indexed": true,
          "internalType": "address",
          "name": "sender",
          "type": "address"
        },
        {
          "indexed": false,
          "internalType": "uint256",
          "name": "nonce",
          "type": "uint256"
        },
        {
          "indexed": false,
          "internalType": "bytes",
          "name": "revertReason",
          "type": "bytes"
        }
      ],
      "name": "UserOperationRevertReason",
      "type": "event"
    },
    {
      "anonymous": false,
      "inputs": [
        {
          "indexed": true,
          "internalType": "address",
          "name": "account",
          "type": "address"
        },
        {
          "indexed": false,
          "internalType": "address",
          "name": "withdrawAddress",
          "type": "address"
        },
        {
          "indexed": false,
          "internalType": "uint256",
          "name": "amount",
          "type": "uint256"
        }
      ],
      "name": "Withdrawn",
      "type": "event"
    },
    {
      "inputs": [
        {
          "internalType": "uint32",
          "name": "_unstakeDelaySec",
          "type": "uint32"
        }
      ],
      "name": "addStake",
      "outputs": [],
      "stateMutability": "payable",
      "type": "function"
    },
    {
      "inputs": [
        {
          "internalType": "address",
          "name": "account",
          "type": "address"
        }
      ],
      "name": "balanceOf",
      "outputs": [
        {
          "internalType": "uint256",
          "name": "",
          "type": "uint256"
        }
      ],
      "stateMutability": "view",
      "type": "function"
    },
    {
      "inputs": [],
      "name": "create2factory",
      "outputs": [
        {
          "internalType": "address",
          "name": "",
          "type": "address"
        }
      ],
      "stateMutability": "view",
      "type": "function"
    },
    {
      "inputs": [
        {
          "internalType": "address",
          "name": "account",
          "type": "address"
        }
      ],
      "name": "depositTo",
      "outputs": [],
      "stateMutability": "payable",
      "type": "function"
    },
    {
      "inputs": [
        {
          "internalType": "address",
          "name": "",
          "type": "address"
        }
      ],
      "name": "deposits",
      "outputs": [
        {
          "internalType": "uint112",
          "name": "deposit",
          "type": "uint112"
        },
        {
          "internalType": "bool",
          "name": "staked",
          "type": "bool"
        },
        {
          "internalType": "uint112",
          "name": "stake",
          "type": "uint112"
        },
        {
          "internalType": "uint32",
          "name": "unstakeDelaySec",
          "type": "uint32"
        },
        {
          "internalType": "uint64",
          "name": "withdrawTime",
          "type": "uint64"
        }
      ],
      "stateMutability": "view",
      "type": "function"
    },
    {
      "inputs": [
        {
          "internalType": "address",
          "name": "account",
          "type": "address"
        }
      ],
      "name": "getDepositInfo",
      "outputs": [
        {
          "components": [
            {
              "internalType": "uint112",
              "name": "deposit",
              "type": "uint112"
            },
            {
              "internalType": "bool",
              "name": "staked",
              "type": "bool"
            },
            {
              "internalType": "uint112",
              "name": "stake",
              "type": "uint112"
            },
            {
              "internalType": "uint32",
              "name": "unstakeDelaySec",
              "type": "uint32"
            },
            {
              "internalType": "uint64",
              "name": "withdrawTime",
              "type": "uint64"
            }
          ],
          "internalType": "struct StakeManager.DepositInfo",
          "name": "info",
          "type": "tuple"
        }
      ],
      "stateMutability": "view",
      "type": "function"
    },
    {
      "inputs": [
        {
          "components": [
            {
              "internalType": "address",
              "name": "sender",
              "type": "address"
            },
            {
              "internalType": "uint256",
              "name": "nonce",
              "type": "uint256"
            },
            {
              "internalType": "bytes",
              "name": "initCode",
              "type": "bytes"
            },
            {
              "internalType": "bytes",
              "name": "callData",
              "type": "bytes"
            },
            {
              "internalType": "uint256",
              "name": "callGas",
              "type": "uint256"
            },
            {
              "internalType": "uint256",
              "name": "verificationGas",
              "type": "uint256"
            },
            {
              "internalType": "uint256",
              "name": "preVerificationGas",
              "type": "uint256"
            },
            {
              "internalType": "uint256",
              "name": "maxFeePerGas",
              "type": "uint256"
            },
            {
              "internalType": "uint256",
              "name": "maxPriorityFeePerGas",
              "type": "uint256"
            },
            {
              "internalType": "address",
              "name": "paymaster",
              "type": "address"
            },
            {
              "internalType": "bytes",
              "name": "paymasterData",
              "type": "bytes"
            },
            {
              "internalType": "bytes",
              "name": "signature",
              "type": "bytes"
            }
          ],
          "internalType": "struct UserOperation",
          "name": "userOp",
          "type": "tuple"
        }
      ],
      "name": "getRequestId",
      "outputs": [
        {
          "internalType": "bytes32",
          "name": "",
          "type": "bytes32"
        }
      ],
      "stateMutability": "view",
      "type": "function"
    },
    {
      "inputs": [
        {
          "internalType": "bytes",
          "name": "initCode",
          "type": "bytes"
        },
        {
          "internalType": "uint256",
          "name": "salt",
          "type": "uint256"
        }
      ],
      "name": "getSenderAddress",
      "outputs": [
        {
          "internalType": "address",
          "name": "",
          "type": "address"
        }
      ],
      "stateMutability": "view",
      "type": "function"
    },
    {
      "inputs": [
        {
          "internalType": "address",
          "name": "sender",
          "type": "address"
        }
      ],
      "name": "getSenderStorage",
      "outputs": [
        {
          "internalType": "uint256[]",
          "name": "senderStorageCells",
          "type": "uint256[]"
        }
      ],
      "stateMutability": "view",
      "type": "function"
    },
    {
      "inputs": [
        {
          "components": [
            {
              "internalType": "address",
              "name": "sender",
              "type": "address"
            },
            {
              "internalType": "uint256",
              "name": "nonce",
              "type": "uint256"
            },
            {
              "internalType": "bytes",
              "name": "initCode",
              "type": "bytes"
            },
            {
              "internalType": "bytes",
              "name": "callData",
              "type": "bytes"
            },
            {
              "internalType": "uint256",
              "name": "callGas",
              "type": "uint256"
            },
            {
              "internalType": "uint256",
              "name": "verificationGas",
              "type": "uint256"
            },
            {
              "internalType": "uint256",
              "name": "preVerificationGas",
              "type": "uint256"
            },
            {
              "internalType": "uint256",
              "name": "maxFeePerGas",
              "type": "uint256"
            },
            {
              "internalType": "uint256",
              "name": "maxPriorityFeePerGas",
              "type": "uint256"
            },
            {
              "internalType": "address",
              "name": "paymaster",
              "type": "address"
            },
            {
              "internalType": "bytes",
              "name": "paymasterData",
              "type": "bytes"
            },
            {
              "internalType": "bytes",
              "name": "signature",
              "type": "bytes"
            }
          ],
          "internalType": "struct UserOperation[]",
          "name": "ops",
          "type": "tuple[]"
        },
        {
          "internalType": "address payable",
          "name": "beneficiary",
          "type": "address"
        }
      ],
      "name": "handleOps",
      "outputs": [],
      "stateMutability": "nonpayable",
      "type": "function"
    },
    {
      "inputs": [
        {
          "components": [
            {
              "internalType": "address",
              "name": "sender",
              "type": "address"
            },
            {
              "internalType": "uint256",
              "name": "nonce",
              "type": "uint256"
            },
            {
              "internalType": "bytes",
              "name": "initCode",
              "type": "bytes"
            },
            {
              "internalType": "bytes",
              "name": "callData",
              "type": "bytes"
            },
            {
              "internalType": "uint256",
              "name": "callGas",
              "type": "uint256"
            },
            {
              "internalType": "uint256",
              "name": "verificationGas",
              "type": "uint256"
            },
            {
              "internalType": "uint256",
              "name": "preVerificationGas",
              "type": "uint256"
            },
            {
              "internalType": "uint256",
              "name": "maxFeePerGas",
              "type": "uint256"
            },
            {
              "internalType": "uint256",
              "name": "maxPriorityFeePerGas",
              "type": "uint256"
            },
            {
              "internalType": "address",
              "name": "paymaster",
              "type": "address"
            },
            {
              "internalType": "bytes",
              "name": "paymasterData",
              "type": "bytes"
            },
            {
              "internalType": "bytes",
              "name": "signature",
              "type": "bytes"
            }
          ],
          "internalType": "struct UserOperation",
          "name": "op",
          "type": "tuple"
        },
        {
          "components": [
            {
              "internalType": "bytes32",
              "name": "requestId",
              "type": "bytes32"
            },
            {
              "internalType": "uint256",
              "name": "prefund",
              "type": "uint256"
            },
            {
              "internalType": "enum EntryPoint.PaymentMode",
              "name": "paymentMode",
              "type": "uint8"
            },
            {
              "internalType": "uint256",
              "name": "contextOffset",
              "type": "uint256"
            },
            {
              "internalType": "uint256",
              "name": "preOpGas",
              "type": "uint256"
            }
          ],
          "internalType": "struct EntryPoint.UserOpInfo",
          "name": "opInfo",
          "type": "tuple"
        },
        {
          "internalType": "bytes",
          "name": "context",
          "type": "bytes"
        }
      ],
      "name": "innerHandleOp",
      "outputs": [
        {
          "internalType": "uint256",
          "name": "actualGasCost",
          "type": "uint256"
        }
      ],
      "stateMutability": "nonpayable",
      "type": "function"
    },
    {
      "inputs": [],
      "name": "paymasterStake",
      "outputs": [
        {
          "internalType": "uint256",
          "name": "",
          "type": "uint256"
        }
      ],
      "stateMutability": "view",
      "type": "function"
    },
    {
      "inputs": [
        {
          "components": [
            {
              "internalType": "address",
              "name": "sender",
              "type": "address"
            },
            {
              "internalType": "uint256",
              "name": "nonce",
              "type": "uint256"
            },
            {
              "internalType": "bytes",
              "name": "initCode",
              "type": "bytes"
            },
            {
              "internalType": "bytes",
              "name": "callData",
              "type": "bytes"
            },
            {
              "internalType": "uint256",
              "name": "callGas",
              "type": "uint256"
            },
            {
              "internalType": "uint256",
              "name": "verificationGas",
              "type": "uint256"
            },
            {
              "internalType": "uint256",
              "name": "preVerificationGas",
              "type": "uint256"
            },
            {
              "internalType": "uint256",
              "name": "maxFeePerGas",
              "type": "uint256"
            },
            {
              "internalType": "uint256",
              "name": "maxPriorityFeePerGas",
              "type": "uint256"
            },
            {
              "internalType": "address",
              "name": "paymaster",
              "type": "address"
            },
            {
              "internalType": "bytes",
              "name": "paymasterData",
              "type": "bytes"
            },
            {
              "internalType": "bytes",
              "name": "signature",
              "type": "bytes"
            }
          ],
          "internalType": "struct UserOperation",
          "name": "userOp",
          "type": "tuple"
        }
      ],
      "name": "simulateValidation",
      "outputs": [
        {
          "internalType": "uint256",
          "name": "preOpGas",
          "type": "uint256"
        },
        {
          "internalType": "uint256",
          "name": "prefund",
          "type": "uint256"
        }
      ],
      "stateMutability": "nonpayable",
      "type": "function"
    },
    {
      "inputs": [],
      "name": "unlockStake",
      "outputs": [],
      "stateMutability": "nonpayable",
      "type": "function"
    },
    {
      "inputs": [],
      "name": "unstakeDelaySec",
      "outputs": [
        {
          "internalType": "uint32",
          "name": "",
          "type": "uint32"
        }
      ],
      "stateMutability": "view",
      "type": "function"
    },
    {
      "inputs": [
        {
          "internalType": "address payable",
          "name": "withdrawAddress",
          "type": "address"
        }
      ],
      "name": "withdrawStake",
      "outputs": [],
      "stateMutability": "nonpayable",
      "type": "function"
    },
    {
      "inputs": [
        {
          "internalType": "address payable",
          "name": "withdrawAddress",
          "type": "address"
        },
        {
          "internalType": "uint256",
          "name": "withdrawAmount",
          "type": "uint256"
        }
      ],
      "name": "withdrawTo",
      "outputs": [],
      "stateMutability": "nonpayable",
      "type": "function"
    },
    {
      "stateMutability": "payable",
      "type": "receive"
    }
  ],
  "bytecode": {
    "object": "0x60e06040523480156200001157600080fd5b5060405162002b9b38038062002b9b83398101604081905262000034916200015d565b63ffffffff811660805260a08290526001600160a01b0383166200009f5760405162461bcd60e51b815260206004820152601660248201527f696e76616c69642063726561746532666163746f72790000000000000000000060448201526064015b60405180910390fd5b60008163ffffffff1611620000f75760405162461bcd60e51b815260206004820152601460248201527f696e76616c696420756e7374616b6544656c6179000000000000000000000000604482015260640162000096565b60008211620001495760405162461bcd60e51b815260206004820152601660248201527f696e76616c6964207061796d61737465725374616b6500000000000000000000604482015260640162000096565b50506001600160a01b031660c052620001b8565b6000806000606084860312156200017357600080fd5b83516001600160a01b03811681146200018b57600080fd5b60208501516040860151919450925063ffffffff81168114620001ad57600080fd5b809150509250925092565b60805160a05160c051612997620002046000396000818161013c015281816112810152611e1b01526000818161018d01526106d101526000818161024401526105e001526129976000f3fe6080604052600436106101025760003560e01c80635287ce1211610095578063bb9fe6bf11610064578063bb9fe6bf1461042b578063c23a5cea14610440578063c31e435414610460578063ec8b5dbf14610480578063fc7e286d146104ad57600080fd5b80635287ce121461029b57806370a08231146103b957806388799426146103f8578063b760faf91461041857600080fd5b8063205c2878116100d1578063205c2878146101f25780632815c17b14610212578063390b9978146102325780634baeaf8a1461027b57600080fd5b80630396cb60146101175780630bfb68471461012a57806317c6a9871461017b5780631a1c1141146101bd57600080fd5b366101125761011033610563565b005b600080fd5b610110610125366004611fc6565b6105ca565b34801561013657600080fd5b5061015e7f000000000000000000000000000000000000000000000000000000000000000081565b6040516001600160a01b0390911681526020015b60405180910390f35b34801561018757600080fd5b506101af7f000000000000000000000000000000000000000000000000000000000000000081565b604051908152602001610172565b3480156101c957600080fd5b506101dd6101d8366004612005565b610894565b60408051928352602083019190915201610172565b3480156101fe57600080fd5b5061011061020d36600461204e565b610940565b34801561021e57600080fd5b5061011061022d36600461207a565b610b03565b34801561023e57600080fd5b506102667f000000000000000000000000000000000000000000000000000000000000000081565b60405163ffffffff9091168152602001610172565b34801561028757600080fd5b506101af610296366004612005565b610d6f565b3480156102a757600080fd5b506103606102b636600461210f565b6040805160a081018252600080825260208201819052918101829052606081018290526080810191909152506001600160a01b031660009081526020818152604091829020825160a08101845281546001600160701b038082168352600160701b820460ff16151594830194909452600160781b90049092169282019290925260019091015463ffffffff81166060830152600160201b90046001600160401b0316608082015290565b6040805182516001600160701b03908116825260208085015115159083015283830151169181019190915260608083015163ffffffff16908201526080918201516001600160401b03169181019190915260a001610172565b3480156103c557600080fd5b506101af6103d436600461210f565b6001600160a01b03166000908152602081905260409020546001600160701b031690565b34801561040457600080fd5b506101af61041336600461212c565b610db1565b61011061042636600461210f565b610563565b34801561043757600080fd5b50610110610f20565b34801561044c57600080fd5b5061011061045b36600461210f565b61102e565b34801561046c57600080fd5b5061015e61047b366004612243565b611263565b34801561048c57600080fd5b506104a061049b36600461210f565b6112dd565b60405161017291906122cc565b3480156104b957600080fd5b5061051c6104c836600461210f565b600060208190529081526040902080546001909101546001600160701b0380831692600160701b810460ff1692600160781b9091049091169063ffffffff811690600160201b90046001600160401b031685565b604080516001600160701b0396871681529415156020860152929094169183019190915263ffffffff1660608201526001600160401b03909116608082015260a001610172565b61056d8134611343565b6001600160a01b03811660008181526020818152604091829020805492516001600160701b03909316835292917f2da466a7b24304f47e87fa2e1e5a81b9831ce54fec19055ce277ca2f39ba42c491015b60405180910390a25050565b33600090815260208190526040902063ffffffff7f00000000000000000000000000000000000000000000000000000000000000008116908316101561064f5760405162461bcd60e51b8152602060048201526015602482015274756e7374616b652064656c617920746f6f206c6f7760581b60448201526064015b60405180910390fd5b600181015463ffffffff90811690831610156106ad5760405162461bcd60e51b815260206004820152601c60248201527f63616e6e6f7420646563726561736520756e7374616b652074696d65000000006044820152606401610646565b80546000906106cd903490600160781b90046001600160701b0316612326565b90507f00000000000000000000000000000000000000000000000000000000000000008110156107355760405162461bcd60e51b81526020600482015260136024820152727374616b652076616c756520746f6f206c6f7760681b6044820152606401610646565b6001600160701b03811061077c5760405162461bcd60e51b815260206004820152600e60248201526d7374616b65206f766572666c6f7760901b6044820152606401610646565b6040805160a08101825283546001600160701b0390811682526001602080840182815286841685870190815263ffffffff808b16606088019081526000608089018181523380835296829052908a902098518954955194518916600160781b02600160781b600160e81b0319951515600160701b026effffffffffffffffffffffffffffff19909716919099161794909417929092169590951786555194909201805492516001600160401b0316600160201b026001600160601b0319909316949093169390931717905590517fa5ae833d0bb1dcd632d98a8b70973e8516812898e19bf27b70071ebc8dc52c0190610887908490879091825263ffffffff16602082015260400190565b60405180910390a2505050565b60008060005a905060006108a785610d6f565b90506108b5600086836113df565b509093505060c08501355a6108ca9084612339565b6108d49190612326565b935033156109395760405162461bcd60e51b815260206004820152602c60248201527f6d7573742062652063616c6c6564206f66662d636861696e207769746820667260448201526b37b69ebd32b93796b0b2323960a11b6064820152608401610646565b5050915091565b3360009081526020818152604091829020825160a08101845281546001600160701b03808216808452600160701b830460ff16151595840195909552600160781b90910416938101939093526001015463ffffffff81166060840152600160201b90046001600160401b03166080830152821115610a005760405162461bcd60e51b815260206004820152601960248201527f576974686472617720616d6f756e7420746f6f206c61726765000000000000006044820152606401610646565b8051610a169083906001600160701b0316612339565b6001600160701b03168152604080516001600160a01b03851681526020810184905233917fd1c19fbcd4551a5edfb66d43d2e337c04837afda3482b42bdf569a8fccdae5fb910160405180910390a26000836001600160a01b03168360405160006040518083038185875af1925050503d8060008114610ab2576040519150601f19603f3d011682016040523d82523d6000602084013e610ab7565b606091505b5050905080610afd5760405162461bcd60e51b81526020600482015260126024820152716661696c656420746f20776974686472617760701b6044820152606401610646565b50505050565b816000816001600160401b03811115610b1e57610b1e6121da565b604051908082528060200260200182016040528015610b8157816020015b610b6e6040805160a0810182526000808252602082018190529091820190815260200160008152602001600081525090565b815260200190600190039081610b3c5790505b50905060005b82811015610c565760005a905036878784818110610ba757610ba761234c565b9050602002810190610bb99190612362565b90506060600080610bc984610d6f565b9050600080610bd98887856113df565b6040805160a08101825287815260208101859052919850889750929450909250908101826001811115610c0e57610c0e612383565b81526020018581526020018760c001355a8a0301815250898981518110610c3757610c3761234c565b6020026020010181905250505050505050508080600101915050610b87565b506000805b85811015610d5c5760005a905036888884818110610c7b57610c7b61234c565b9050602002810190610c8d9190612362565b90506000858481518110610ca357610ca361234c565b6020908102919091010151606081015160405163443cca1360e11b81529192509081903090638879942690610ce090879087908690600401612570565b6020604051808303816000875af1925050508015610d1b575060408051601f3d908101601f19168201909252610d18918101906125e0565b60015b610d4557600083608001515a8703019050610d3b8760028787868661154e565b8801975050610d4b565b96909601955b505060019093019250610c5b915050565b50610d678482611857565b505050505050565b6000610d7a82611908565b6040805160208101929092523090820152466060820152608001604051602081830303815290604052805190602001209050919050565b6000805a9050333014610dc357600080fd5b600080610dd360608901896125f9565b90501115610eb35760008088356001600160a01b031660808a0135610dfb60608c018c6125f9565b604051610e0992919061263f565b60006040518083038160008787f1925050503d8060008114610e47576040519150601f19603f3d011682016040523d82523d6000602084013e610e4c565b606091505b509150915081610eb057805115610eab5788356001600160a01b031688600001357f1c4fada7374c0a9ee8841fc38afe82932dc0f8e69012e927f061a8bae611a2018b6020013584604051610ea292919061264f565b60405180910390a35b600192505b50505b600086608001355a8403019050610f146000838a610ed6368c90038c018c612668565b8a8a8080601f01602080910402602001604051908101604052809392919081815260200183838082843760009201919091525089925061154e915050565b98975050505050505050565b3360009081526020819052604081206001810154909163ffffffff9091169003610f5c5760405162461bcd60e51b8152600401610646906126e3565b8054600160701b900460ff16610fa85760405162461bcd60e51b8152602060048201526011602482015270616c726561647920756e7374616b696e6760781b6044820152606401610646565b6001810154600090610fc09063ffffffff164261270d565b6001830180546bffffffffffffffff000000001916600160201b6001600160401b03841690810291909117909155835460ff60701b1916845560405190815290915033907ffa9b3c14cc825c412c9ed81b3ba365a5b459439403f18829e572ed53a4180f0a906020016105be565b3360009081526020819052604090208054600160781b90046001600160701b0316806110935760405162461bcd60e51b81526020600482015260146024820152734e6f207374616b6520746f20776974686472617760601b6044820152606401610646565b6001820154600160201b90046001600160401b03166110f45760405162461bcd60e51b815260206004820152601d60248201527f6d7573742063616c6c20756e6c6f636b5374616b6528292066697273740000006044820152606401610646565b600182015442600160201b9091046001600160401b031611156111595760405162461bcd60e51b815260206004820152601b60248201527f5374616b65207769746864726177616c206973206e6f742064756500000000006044820152606401610646565b6001820180546001600160601b03191690558154600160781b600160e81b0319168255604080516001600160a01b03851681526020810183905233917fb7c918e0e249f999e965cafeb6c664271b3f4317d296461500e71da39f0cbda3910160405180910390a26000836001600160a01b03168260405160006040518083038185875af1925050503d806000811461120d576040519150601f19603f3d011682016040523d82523d6000602084013e611212565b606091505b5050905080610afd5760405162461bcd60e51b815260206004820152601860248201527f6661696c656420746f207769746864726177207374616b6500000000000000006044820152606401610646565b8151602080840191909120604080516001600160f81b0319818501527f000000000000000000000000000000000000000000000000000000000000000060601b6001600160601b03191660218201526035810185905260558082019390935281518082039093018352607501905280519101205b92915050565b6001600160a01b038116600090815260208190526040908190208151600180825281840190935260609282919081602001602082028036833701905050925081836000815181106113305761133061234c565b6020026020010181815250505050919050565b6001600160a01b038216600090815260208190526040812080549091906113749084906001600160701b0316612326565b90506001600160701b038111156113c05760405162461bcd60e51b815260206004820152601060248201526f6465706f736974206f766572666c6f7760801b6044820152606401610646565b81546001600160701b0319166001600160701b03919091161790555050565b600080606060005a905060c086013560a08701351760808701351760e087013517610100870135176effffffffffffffffffffffffffffff81111561145c5760405162461bcd60e51b81526020600482015260136024820152726761732076616c756573206f766572666c6f7760681b6044820152606401610646565b600061146788611921565b9096509450611479898989898961194d565b905043600086600181111561149057611490612383565b036114a9576114a28a8a8a8a86611b55565b94506114bc565b6040518060200160405280600081525094505b60005a85039050808a60a001351015611540578a6114e26101408c016101208d0161210f565b60405162fa072b60e01b815260048101929092526001600160a01b0316602482015260606044820152601e60648201527f55736564206d6f7265207468616e20766572696669636174696f6e4761730000608482015260a401610646565b505050505093509350939050565b6000805a9050600061155f87611d4c565b90506000806115766101408a016101208b0161210f565b90506001600160a01b03811661158f5788359150611723565b80915060008751111561172357858302945060028a60028111156115b5576115b5612383565b146116285760405163a9a2340960e01b81526001600160a01b0382169063a9a234099060a08c0135906115f0908e908c908b90600401612734565b600060405180830381600088803b15801561160a57600080fd5b5087f115801561161e573d6000803e3d6000fd5b5050505050611723565b60405163a9a2340960e01b81526001600160a01b0382169063a9a234099060a08c01359061165e908e908c908b90600401612734565b600060405180830381600088803b15801561167857600080fd5b5087f19350505050801561168a575060015b6117235761169661276d565b806308c379a0036116d357506116aa612789565b806116b557506116d5565b8b828260405162fa072b60e01b815260040161064693929190612812565b505b60405162fa072b60e01b8152600481018c90526001600160a01b038216602482015260606044820152600d60648201526c1c1bdcdd13dc081c995d995c9d609a1b608482015260a401610646565b5a840386019550828602945084886020015110156117995760405162fa072b60e01b8152600481018c90526001600160a01b038216602482015260606044820152601b60648201527f70726566756e642062656c6f772061637475616c476173436f73740000000000608482015260a401610646565b60208801518590036117ab8382611343565b6000808c60028111156117c0576117c0612383565b1490506117d56101408c016101208d0161210f565b6001600160a01b03168b356001600160a01b03168b600001517f33fd4d1f25a5461bea901784a6571de6debc16cd0831932c22c6969cd73ba9948e602001358b8a8760405161183f9493929190938452602084019290925260408301521515606082015260800190565b60405180910390a45050505050509695505050505050565b6001600160a01b0382166118a35760405162461bcd60e51b8152602060048201526013602482015272696e76616c69642062656e656669636961727960681b6044820152606401610646565b6000826001600160a01b03168260405160006040518083038185875af1925050503d80600081146118f0576040519150601f19603f3d011682016040523d82523d6000602084013e6118f5565b606091505b505090508061190357600080fd5b505050565b600061191382611d7b565b805190602001209050919050565b60008061192d83611dba565b915061193883611dd5565b1561194557506000915091565b506001915091565b6000805a905061195c86611dfb565b600086358185600181111561197357611973612383565b146119b0576001600160a01b0381166000908152602081905260409020546001600160701b03168681116119a9578087036119ac565b60005b9250505b604051633f2eb07d60e21b81526001600160a01b0382169063fcbac1f49060a08b0135906119e6908c908c908890600401612845565b600060405180830381600088803b158015611a0057600080fd5b5087f193505050508015611a12575060015b611a8e57611a1e61276d565b806308c379a003611a5c5750611a32612789565b80611a3d5750611a5e565b8960008260405162fa072b60e01b815260040161064693929190612812565b505b60405162fa072b60e01b8152600481018a9052600060248201819052606060448301526064820152608401610646565b6000856001811115611aa257611aa2612383565b14611b45576001600160a01b038116600090815260208190526040902080546001600160701b031680881115611b285760405162fa072b60e01b8152600481018c90526000602482015260606044820152601960648201527f77616c6c6574206469646e2774207061792070726566756e6400000000000000608482015260a401610646565b81546001600160701b031916908890036001600160701b03161790555b5a90920398975050505050505050565b60606000611b6b6101408701610120880161210f565b6001600160a01b03811660009081526020819052604090208054919250906001600160701b03811690600160701b900460ff1680611bbf57898460405162fa072b60e01b815260040161064692919061286a565b86821015611c255760405162fa072b60e01b8152600481018b90526001600160a01b038516602482015260606044820152601960648201527f7061796d6173746572206465706f73697420746f6f206c6f7700000000000000608482015260a401610646565b82546001600160701b0319168783036001600160701b0316178355604051637bfd084560e01b815260a08a0135879003906001600160a01b03861690637bfd0845908390611c7b908e908e908e90600401612845565b6000604051808303818786fa93505050508015611cba57506040513d6000823e601f3d908101601f19168201604052611cb791908101906128a9565b60015b611d3d57611cc661276d565b806308c379a003611d035750611cda612789565b80611ce55750611d05565b8b868260405162fa072b60e01b815260040161064693929190612812565b505b60405162fa072b60e01b8152600481018c90526001600160a01b03861660248201526060604482015260006064820152608401610646565b9b9a5050505050505050505050565b600060e0820135610100830135808203611d67575092915050565b611d7382488301611f74565b949350505050565b6060366000611d8e6101608501856125f9565b915091508360208184030360405194506020810185016040528085528082602087013750505050919050565b6000611dc582611d4c565b611dce83611f8c565b0292915050565b600080611dea6101408401610120850161210f565b6001600160a01b0316141592915050565b611e0860408201826125f9565b159050611f715760006001600160a01b037f000000000000000000000000000000000000000000000000000000000000000016634af63f02611e4d60408501856125f9565b6040516001600160e01b031960e085901b168152611e75929190602088013590600401612920565b6020604051808303816000875af1158015611e94573d6000803e3d6000fd5b505050506040513d601f19601f82011682018060405250810190611eb89190612944565b90506001600160a01b038116611f015760405162461bcd60e51b815260206004820152600e60248201526d18dc99585d194c8819985a5b195960921b6044820152606401610646565b81356001600160a01b0316816001600160a01b031614611f6f5760405162461bcd60e51b8152602060048201526024808201527f73656e64657220646f65736e2774206d617463682063726561746532206164646044820152637265737360e01b6064820152608401610646565b505b50565b6000818310611f835781611f85565b825b9392505050565b600080611f9883611dd5565b611fa3576001611fa6565b60035b60ff1690508260c00135818460a001350284608001350101915050919050565b600060208284031215611fd857600080fd5b813563ffffffff81168114611f8557600080fd5b60006101808284031215611fff57600080fd5b50919050565b60006020828403121561201757600080fd5b81356001600160401b0381111561202d57600080fd5b611d7384828501611fec565b6001600160a01b0381168114611f7157600080fd5b6000806040838503121561206157600080fd5b823561206c81612039565b946020939093013593505050565b60008060006040848603121561208f57600080fd5b83356001600160401b03808211156120a657600080fd5b818601915086601f8301126120ba57600080fd5b8135818111156120c957600080fd5b8760208260051b85010111156120de57600080fd5b602092830195509350508401356120f481612039565b809150509250925092565b803561210a81612039565b919050565b60006020828403121561212157600080fd5b8135611f8581612039565b60008060008084860360e081121561214357600080fd5b85356001600160401b038082111561215a57600080fd5b61216689838a01611fec565b965060a0601f198401121561217a57600080fd5b60208801955060c088013592508083111561219457600080fd5b828801925088601f8401126121a857600080fd5b82359150808211156121b957600080fd5b508760208284010111156121cc57600080fd5b949793965060200194505050565b634e487b7160e01b600052604160045260246000fd5b601f8201601f191681016001600160401b0381118282101715612215576122156121da565b6040525050565b60006001600160401b03821115612235576122356121da565b50601f01601f191660200190565b6000806040838503121561225657600080fd5b82356001600160401b0381111561226c57600080fd5b8301601f8101851361227d57600080fd5b80356122888161221c565b60405161229582826121f0565b8281528760208486010111156122aa57600080fd5b8260208501602083013760006020938201840152979590910135955050505050565b6020808252825182820181905260009190848201906040850190845b81811015612304578351835292840192918401916001016122e8565b50909695505050505050565b634e487b7160e01b600052601160045260246000fd5b808201808211156112d7576112d7612310565b818103818111156112d7576112d7612310565b634e487b7160e01b600052603260045260246000fd5b6000823561017e1983360301811261237957600080fd5b9190910192915050565b634e487b7160e01b600052602160045260246000fd5b6000808335601e198436030181126123b057600080fd5b83016020810192503590506001600160401b038111156123cf57600080fd5b8036038213156123de57600080fd5b9250929050565b81835281816020850137506000828201602090810191909152601f909101601f19169091010190565b600061018061242d84612420856120ff565b6001600160a01b03169052565b602083013560208501526124446040840184612399565b82604087015261245783870182846123e5565b925050506124686060840184612399565b858303606087015261247b8382846123e5565b925050506080830135608085015260a083013560a085015260c083013560c085015260e083013560e08501526101008084013581860152506101206124c18185016120ff565b6001600160a01b0316908501526101406124dd84820185612399565b868403838801526124ef8482846123e5565b935050505061016061250381850185612399565b868403838801526125158482846123e5565b979650505050505050565b60005b8381101561253b578181015183820152602001612523565b50506000910152565b6000815180845261255c816020860160208601612520565b601f01601f19169290920160200192915050565b60e08152600061258360e083018661240e565b84516020840152602085015160408401526040850151600281106125a9576125a9612383565b8060608501525060608501516080840152608085015160a084015282810360c08401526125d68185612544565b9695505050505050565b6000602082840312156125f257600080fd5b5051919050565b6000808335601e1984360301811261261057600080fd5b8301803591506001600160401b0382111561262a57600080fd5b6020019150368190038213156123de57600080fd5b8183823760009101908152919050565b828152604060208201526000611d736040830184612544565b600060a0828403121561267a57600080fd5b60405160a081018181106001600160401b038211171561269c5761269c6121da565b806040525082358152602083013560208201526040830135600281106126c157600080fd5b6040820152606083810135908201526080928301359281019290925250919050565b6020815260006112d760208301600a8152691b9bdd081cdd185ad95960b21b602082015260400190565b6001600160401b0381811683821601908082111561272d5761272d612310565b5092915050565b60006003851061274657612746612383565b8482526060602083015261275d6060830185612544565b9050826040830152949350505050565b600060033d11156127865760046000803e5060005160e01c5b90565b600060443d10156127975790565b6040516003193d81016004833e81513d6001600160401b0381602484011181841117156127c657505050505090565b82850191508151818111156127de5750505050505090565b843d87010160208285010111156127f85750505050505090565b612807602082860101876121f0565b509095945050505050565b8381526001600160a01b038316602082015260606040820181905260009061283c90830184612544565b95945050505050565b606081526000612858606083018661240e565b60208301949094525060400152919050565b8281526001600160a01b0382166020820152606060408201819052600a90820152691b9bdd081cdd185ad95960b21b6080820152600060a08201611d73565b6000602082840312156128bb57600080fd5b81516001600160401b038111156128d157600080fd5b8201601f810184136128e257600080fd5b80516128ed8161221c565b6040516128fa82826121f0565b82815286602084860101111561290f57600080fd5b6125d6836020830160208701612520565b6040815260006129346040830185876123e5565b9050826020830152949350505050565b60006020828403121561295657600080fd5b8151611f858161203956fea2646970667358221220c69e158ea826edb1ba6dffdfaac3a1ab79ab2333eb536d6ceecad0058f93b20064736f6c63430008130033",
    "linkReferences": {}
  },
  "methodIdentifiers": {
    "addStake(uint32)": "0396cb60",
    "balanceOf(address)": "70a08231",
    "create2factory()": "0bfb6847",
    "depositTo(address)": "b760faf9",
    "deposits(address)": "fc7e286d",
    "getDepositInfo(address)": "5287ce12",
    "getRequestId((address,uint256,bytes,bytes,uint256,uint256,uint256,uint256,uint256,address,bytes,bytes))": "4baeaf8a",
    "getSenderAddress(bytes,uint256)": "c31e4354",
    "getSenderStorage(address)": "ec8b5dbf",
    "handleOps((address,uint256,bytes,bytes,uint256,uint256,uint256,uint256,uint256,address,bytes,bytes)[],address)": "2815c17b",
    "innerHandleOp((address,uint256,bytes,bytes,uint256,uint256,uint256,uint256,uint256,address,bytes,bytes),(bytes32,uint256,uint8,uint256,uint256),bytes)": "88799426",
    "paymasterStake()": "17c6a987",
    "simulateValidation((address,uint256,bytes,bytes,uint256,uint256,uint256,uint256,uint256,address,bytes,bytes))": "1a1c1141",
    "unlockStake()": "bb9fe6bf",
    "unstakeDelaySec()": "390b9978",
    "withdrawStake(address)": "c23a5cea",
    "withdrawTo(address,uint256)": "205c2878"
  },
  "id": 4
}